:030000000209B240
:0C09B200787FE4F6D8FD7581210208F67C
:1009980000010003000200060004000C0008000922
:0A09A8000001000300020006000435
:10096400EB25E02408F808E6F5B0F5A07F327E0018
:10097400E4FDFCC3ED9FEC9E5019758901758CFC58
:10098400E4F58AD28C308DFDC28DC28C0DBD000180
:030994000C80E0F4
:01099700223D
:1008F60078087C007D007BFF7A0979987E007F1A54
:100906001208D0E4FBFAF5A0F5B0D2A47FC87E00A9
:10091600120974C2A41209742090062090EC30913A
:10092600E9EB4A70E5FAFBD3EB940CEA940050DA53
:10093600120964EB640C4A701E2090FD2091FA7A2D
:10094600007B0CC3EA940040EA120964EB4A60BAE1
:0E095600EB1B70EF1A80EC0BBB00010A80C98E
:10080000E709F608DFFA8046E709F208DFFA803EDA
:1008100088828C83E709F0A3DFFA8032E309F608C7
:10082000DFFA8078E309F208DFFA807088828C832F
:10083000E309F0A3DFFA806489828A83E0A3F608E3
:10084000DFFA805889828A83E0A3F208DFFA804CBD
:1008500080D280FA80C680D4806980F28033801094
:1008600080A680EA809A80A880DA80E280CA8033FD
:1008700089828A83ECFAE493A3C8C582C8CCC58375
:10088000CCF0A3C8C582C8CCC583CCDFE9DEE78045
:100890000D89828A83E493A3F608DFF9ECFAA9F0C4
:1008A000EDFB2289828A83ECFAE0A3C8C582C8CC1A
:1008B000C583CCF0A3C8C582C8CCC583CCDFEADE33
:1008C000E880DB89828A83E493A3F208DFF980CC95
:1008D00088F0EF60010E4E60C388F0ED2402B4048E
:1008E0000050B9F582EB2402B4040050AF23234535
:0608F00082239008507302
:00000001FF
